:030000000204E80F
:10000300C00078B10000D8FCD00022C000C0017944
:100013002D78A6D8FED9FADAF6D001D00022D293F1
:10002300120003C29322A2E792B5A2E692B4A2E51C
:1000330092B3A2E492B2120021120003A2E392B59A
:10004300A2E292B4A2E192B3A2E092B21200212200
:10005300D291020029C291020029C293C292743341
:100063001200587433120058743212005874281254
:100073000058740C1200587401120058C0027A021E
:1000830012000ED00222E4936006120053A380F6FE
:100093002244404480020058C0E0E8C4540F443076
:0E00A300120053E8540F4430120053D0E022F4
:1000B100C0E0C0D0C000C001C002E4F538F539F598
:1000C1003AF53BF53C7A20E533A2E779047830E64E
:1000D10033F608D9FA79057838E636D4F608D9F92D
:1000E100DAE5D002D001D000D0D0D0E022C0E0C00B
:1000F100D0C000C001C002E4F538F539F53AF53B4E
:10010100F53C7A20E533A2E779047830E633F60846
:10011100D9FA79057838C0D0E6243320E70224D013
:1001210020E30224FDD0D033F608D9EADAD6D00292
:10013100D001D000D0D0D0E022C0E0C0D0C000C0FB
:1001410001C0027A207905C3783CE613C0D030E7BC
:100151000224D030E30224FDF618D0D0D9EC790482
:100161007833E613F618D9FADADBD002D001D000E1
:10017100D0D0D0E022C0E0C0D0E5302534F530E564
:10018100313535F531E5323536F532E5333537F58B
:1001910033D0D0D0E022C0E0C0D0C3E5309534F5F3
:1001A10030E5319535F531E5329536F532E5339562
:1001B10037F533D0D0D0E022C0E0C0D0C3E53095D0
:1001C10034E5319535E5329536E53395379200D0F2
:1001D100D0D0E022C0E0C0D0C3E5349530E53595FC
:1001E10031E5369532E53795339200D0D0D0E02213
:1001F100C0E0C0D0C200C3E53495307014E5359538
:1002010031700EE53695327008E53795337002D2BC
:1002110000D0D0D0E0221201F12000030201D5224A
:100221001201F12000030201B922C0E0C0F0C0D0E8
:10023100C000C001C002C003E5308534F0A4F8A9B4
:10024100F0E5318534F0A429F9E435F0FAE530859B
:1002510035F0A429F9E5F03AFAE433FBE5328534C7
:10026100F0A42AFAE5F03BFBE5318535F0A42AFA42
:10027100E5F03BFBE5308536F0A42AFAE5F03BFBDF
:10028100E5338534F0A42BFBE5328535F0A42BFB57
:10029100E5318536F0A42BFBE5308537F0A42BFB47
:1002A1008B338A3289318830D003D002D001D0001B
:1002B100D0D0D0F0D0E022C0E0C0D0C000C001C09A
:1002C10002C003C0047C20E4F8F9FAFBC3E5303333
:1002D100F530E53133F531E53233F532E53333F5D8
:1002E10033E833F8E933F9EA33FAEB33FBC3E89542
:1002F10034E99535EA9536EB95374013E89534F8AE
:10030100E99535F9EA9536FAEB9537FB433001DC8F
:10031100BBD004D003D002D001D000D0D0D0E02295
:10032100C0E0E8C4540F44301204CAE8540F44300A
:100331001204CAD0E022200D0A0054656D703A20E3
:10034100202020430054656D703A20202020460073
:1003510079DE78A6D8FED9FA438780759852759BC5
:1003610000759AF4759B1E22D2A2C2A32220A41862
:10037100C0027A7D12000ED00220A40CE4E55D24B7
:1003810001B402027400F55D22C2A078011204D307
:1003910078801204D3E95403F53E78551204D389C9
:1003A1003DD2A0C0027A6412000ED0021203B12223
:1003B100E55DB40021120419C0E074011412009625
:1003C100D0E0C083C082C0E090033B120089D0E03E
:1003D100D082D083801F120456C0E0740114120031
:1003E10096D0E0C083C082C0E0900346120089D05D
:1003F100E0D082D083C000A838120321D000C0E031
:10040100740714120096D0E0C000A83812009BD0E7
:10041100009003371204C022853D30853E3175328C
:100421000075330075349A753501753600753700DE
:1004310012022B7534FF75350375360075370012BE
:1004410002B8753411753501753600753700120122
:10045100971200B122853D30853E317532007533EA
:100461000075349A75350175360075370012022B07
:100471007534FF7535037536007537001202B8758E
:1004810034117535017536007537001201977534D1
:100491000975350075360075370012022B75340564
:1004A1007535007536007537001202B87534207540
:1004B10035007536007537001201761200B122E45D
:1004C10093600E1204CAA380F63099FDC299F59982
:1004D100222279007A08E833F892A1D2A3A2A2E9F4
:1004E10033F9C2A3DAF02275817F12005D12035144
:0E04F100120369755D0012036E12038A80F813
:00000001FF
